<!DOCTYPE html>
<html lang="en" dir="auto">

<head><meta charset="utf-8">
<meta http-equiv="X-UA-Compatible" content="IE=edge">
<meta name="viewport" content="width=device-width, initial-scale=1, shrink-to-fit=no">
<meta name="robots" content="index, follow">
<title>Ethereum | Lambert&#39;s blog</title>
<meta name="keywords" content="" />
<meta name="description" content="Theme PaperMod - https://github.com/adityatelange/hugo-PaperMod">
<meta name="author" content="Theme PaperMod">
<link rel="canonical" href="https://lambertxiao.github.io/tags/ethereum/" />
<link crossorigin="anonymous" href="/assets/css/stylesheet.min.f930089bcedc85892fe03ed179c7aff545249b87bdabbcac09cc1895e74257eb.css" integrity="sha256-&#43;TAIm87chYkv4D7Recev9UUkm4e9q7ysCcwYledCV&#43;s=" rel="preload stylesheet" as="style">
<link rel="preload" href="/avatar.jpeg" as="image">
<link rel="icon" href="https://lambertxiao.github.io/avatar.jpeg">
<link rel="icon" type="image/png" sizes="16x16" href="https://lambertxiao.github.io/favicon-16x16.png">
<link rel="icon" type="image/png" sizes="32x32" href="https://lambertxiao.github.io/favicon-32x32.png">
<link rel="apple-touch-icon" href="https://lambertxiao.github.io/apple-touch-icon.png">
<link rel="mask-icon" href="https://lambertxiao.github.io/safari-pinned-tab.svg">
<meta name="theme-color" content="#2e2e33">
<meta name="msapplication-TileColor" content="#2e2e33">
<link rel="alternate" type="application/rss+xml" href="https://lambertxiao.github.io/tags/ethereum/index.xml">
<noscript>
    <style>
        #theme-toggle,
        .top-link {
            display: none;
        }

    </style>
    <style>
        @media (prefers-color-scheme: dark) {
            :root {
                --theme: rgb(29, 30, 32);
                --entry: rgb(46, 46, 51);
                --primary: rgb(218, 218, 219);
                --secondary: rgb(155, 156, 157);
                --tertiary: rgb(65, 66, 68);
                --content: rgb(196, 196, 197);
                --hljs-bg: rgb(46, 46, 51);
                --code-bg: rgb(55, 56, 62);
                --border: rgb(51, 51, 51);
            }

            .list {
                background: var(--theme);
            }

            .list:not(.dark)::-webkit-scrollbar-track {
                background: 0 0;
            }

            .list:not(.dark)::-webkit-scrollbar-thumb {
                border-color: var(--theme);
            }
        }

    </style>
</noscript><meta property="og:title" content="Ethereum" />
<meta property="og:description" content="Theme PaperMod - https://github.com/adityatelange/hugo-PaperMod" />
<meta property="og:type" content="website" />
<meta property="og:url" content="https://lambertxiao.github.io/tags/ethereum/" /><meta property="og:image" content="https://lambertxiao.github.io/papermod-cover.png"/>

<meta name="twitter:card" content="summary_large_image"/>
<meta name="twitter:image" content="https://lambertxiao.github.io/papermod-cover.png"/>

<meta name="twitter:title" content="Ethereum"/>
<meta name="twitter:description" content="Theme PaperMod - https://github.com/adityatelange/hugo-PaperMod"/>

</head>

<body class="list" id="top">
<script>
    if (localStorage.getItem("pref-theme") === "dark") {
        document.body.classList.add('dark');
    } else if (localStorage.getItem("pref-theme") === "light") {
        document.body.classList.remove('dark')
    } else if (window.matchMedia('(prefers-color-scheme: dark)').matches) {
        document.body.classList.add('dark');
    }

</script>

<header class="header">
    <nav class="nav">
        <div class="logo">
            <a href="https://lambertxiao.github.io" accesskey="h" title="Lambert&#39;s Blog (Alt + H)">
                <img src="https://lambertxiao.github.io/avatar.jpeg" alt="logo" aria-label="logo"
                    height="35">Lambert&#39;s Blog</a>
            <span class="logo-switches">
                <button id="theme-toggle" accesskey="t" title="(Alt + T)">
                    <svg id="moon" xmlns="http://www.w3.org/2000/svg" width="24" height="24" viewBox="0 0 24 24"
                        fill="none" stroke="currentColor" stroke-width="2" stroke-linecap="round"
                        stroke-linejoin="round">
                        <path d="M21 12.79A9 9 0 1 1 11.21 3 7 7 0 0 0 21 12.79z"></path>
                    </svg>
                    <svg id="sun" xmlns="http://www.w3.org/2000/svg" width="24" height="24" viewBox="0 0 24 24"
                        fill="none" stroke="currentColor" stroke-width="2" stroke-linecap="round"
                        stroke-linejoin="round">
                        <circle cx="12" cy="12" r="5"></circle>
                        <line x1="12" y1="1" x2="12" y2="3"></line>
                        <line x1="12" y1="21" x2="12" y2="23"></line>
                        <line x1="4.22" y1="4.22" x2="5.64" y2="5.64"></line>
                        <line x1="18.36" y1="18.36" x2="19.78" y2="19.78"></line>
                        <line x1="1" y1="12" x2="3" y2="12"></line>
                        <line x1="21" y1="12" x2="23" y2="12"></line>
                        <line x1="4.22" y1="19.78" x2="5.64" y2="18.36"></line>
                        <line x1="18.36" y1="5.64" x2="19.78" y2="4.22"></line>
                    </svg>
                </button>
            </span>
        </div>
        <ul id="menu">
            <li>
                <a href="https://lambertxiao.github.io/archives" title="文章">
                    <span>文章</span>
                </a>
            </li>
            <li>
                <a href="https://lambertxiao.github.io/search/" title="搜索">
                    <span>搜索</span>
                </a>
            </li>
            <li>
                <a href="https://lambertxiao.github.io/tags/" title="标签">
                    <span>标签</span>
                </a>
            </li>
        </ul>
    </nav>
</header>
<main class="main"> 
<header class="page-header"><div class="breadcrumbs"><a href="https://lambertxiao.github.io">Home</a>&nbsp;»&nbsp;<a href="https://lambertxiao.github.io/tags/">Tags</a></div>
  <h1>Ethereum</h1>
</header>

<article class="post-entry tag-entry"> 
  <header class="entry-header">
    <h2>以太坊
    </h2>
  </header>
  <section class="entry-content">
    <p>什么是以太坊 简单来说，以太坊就是一个基于交易的状态机。什么是状态机呢？可以将其理解成一台机器，这台机器维护着一些状态，在以太坊交易发生时，这些状态会从一个状态转化到另一个状态。以太坊时基于区块链构建的，区块链上保存着状态和交易。当我们与以太坊交互时，其实就是在执行交易、改变系统状态。
引用一个公式表示就是：
 σ′ =Υ(σ,T)
 Υ是状态转换函数，T是交易，σ是状态，σ′转换后的状态。
从创世区块开始，无尽的交易不断的刷新着系统当前状态，每产生一个区块就对当前状态做一次快照（patricia trie根）存入区块头中。
以太坊可以干什么？ 以太坊作为一个开发的区块链平台，它允许任何人在平台中建立和使用通过区块链技术运行的去中心化应用。可将之类比为Internet平台，而我们可以在其上面开发web网站。（但是似乎在以太坊上面只能开发智能合约？）
什么是智能合约？ 智能合约就是以太坊平台上运行的程序。一旦事件触发合约中的条款，代码自动执行。智能合约的功能是由开发者自行设计的。
智能合约的工作原理 构建 → 存储 → 执行
  智能合约由区块链内的多个用户共同参与制定，可用于用户之间的任何交易行为。协议中明确了双方的权利和义务，开发人员将这些权利和义务以电子化的方式进行编程，代码中包含会触发合约自动执行的条件。比方说，你把一套闲置的房子租给A，那么，这份智能租约中就规定了A必须在每月5号之前给你打房租、你必须在收到房租时马上给对方钥匙［2］等条款。
  一旦编码完成，这份智能合约就被上传到区块链网络上，即全网验证节点都会接收到你和A的租房合约。
  智能合约会定期检查是否存在 相关事件和触发条件；满足条件的事件将会推送到待验证的队列中。假设A在4号提前打房租给你，这个事件就成了该合约的触发条件（每月5号以前）。
  区块链上的验证节点先对该 事件进行签名验证 以确保其有效性；等大多数验证节点对该事件达成共识后，智能合约将成功执行，并通知用户。
  成功执行的合约将移出区块。而未执行的合约则继续等待下一轮处理，直至成功执行。
  部署到以太坊上的智能合约是要消耗以太币的。就好像把现实中的仲裁人、法官、执行人搬到了区块链上，尽管他们成了一行行的代码，但也是珍贵的计算机资源。智能合约也遵循“Less is more”，逻辑应尽可能地简单。逻辑越复杂，消耗的以太币就越多。
既然执行要消费以太币，如何支付呢？智能合约是预支付，为了合约顺利执行，一般提前多打一点以太币。如果预支付的以太币不足以支撑整个执行过程，就算进行到半路，合约也会回到初始状态；并且消耗的以太币也不会退回给合约发起人。
如何触发智能合约？ 智能合约本身规定了触发的条件，只要满足了条件的情况下，合约就会自动触发（比如时间到了自动缴房租）。也可以由外部账户触发。
以太坊的区块结构 区块链上最重要的结构莫过于区块的结构，以太坊的区块结构和区块链的类似，但是又有着诸多不同。
以太坊区块是由三大部分组成：区块头，叔块，交易列表。
  区块头由15个字段组成。
  叔块其实就是孤块，是由于某个区块上产生了多分支。因以太坊出块速度很快平均十几秒就会打包生成一个块，所以矿工挖矿的竞争性很高，可能同时产出几个都合法的区块，以太坊为了一些安全性起见，允许竞争块也挂在到主链上，同时给与挖出这些孤块的矿工们少许奖励增加工作的公平性。这些孤块最多允许6个高度，这也是6个区块确认主链说法的来源。
  交易列表，存储的是本区块中所有的交易内容。
  看一下一个实际的区块信息：
&#34;blocks&#34; : [ { &#34;blockHeader&#34; : { &#34;bloom&#34; : &#34;0x00000000000000000000000000000000000000000000000000000000000000000000000000000000000000000000000000000000000000000000000000000000000000000000000000000000000000000000000000000000000000000000000000000000000000000000000000000000000000000000000000000000000000000000000000000000000000000000000000000000000000000000000000000000000000000000000000000000000000000000000000000000000000000000000000000000000000000000000000000000000000000000000000000000000000000000000000000000000000000000000000000000000000000000000000000000&#34;, &#34;coinbase&#34; : &#34;0x3535353535353535353535353535353535353535&#34;, &#34;difficulty&#34; : &#34;0x020000&#34;, &#34;extraData&#34; : &#34;&#34;, &#34;gasLimit&#34; : &#34;0x05f5e100&#34;, &#34;gasUsed&#34; : &#34;0x014fa1&#34;, &#34;hash&#34; : &#34;0x39f4659b079e257df8fd7e699528531e97a6b8a442ca0d11200c4a2f7433c483&#34;, &#34;mixHash&#34; : &#34;0x7379f33af4ae2db7e293f808a165135d0b1a99572cc96fb9f7d17ef64a751969&#34;, &#34;nonce&#34; : &#34;0x8e08d7aabeee8773&#34;, &#34;number&#34; : &#34;0x01&#34;, &#34;parentHash&#34; : &#34;0xadbef3bf0b3b7b14f6e7b1a45d240ecc863543a279a86c23f60170e8e7a6bcc3&#34;, &#34;receiptTrie&#34; : &#34;0xb21660268480338c0cd0613358315359b619bd527d5850949c4863cddaec316b&#34;, &#34;stateRoot&#34; : &#34;0xde4ce9b5b2f88ab1680962c64281224b1743bdf94bd6a9e390ea779ff616c1f7&#34;, &#34;timestamp&#34; : &#34;0x03e8&#34;, &#34;transactionsTrie&#34; : &#34;0x56445ba866f3e41851154fb8700dcec8556a178f1833021e030b8a47b494769d&#34;, &#34;uncleHash&#34; : &#34;0x1dcc4de8dec75d7aab85b567b6ccd41ad312451b948a7413f0a142fd40d49347&#34; }, &#34;rlp&#34; : &#34;0xf90308f901f9a0adbef3bf0b3b7b14f6e7b1a45d240ecc863543a279a86c23f60170e8e7a6bcc3a01dcc4de8dec75d7aab85b567b6ccd41ad312451b948a7413f0a142fd40d49347943535353535353535353535353535353535353535a0de4ce9b5b2f88ab1680962c64281224b1743bdf94bd6a9e390ea779ff616c1f7a056445ba866f3e41851154fb8700dcec8556a178f1833021e030b8a47b494769da0b21660268480338c0cd0613358315359b619bd527d5850949c4863cddaec316bb901000000000000000000000000000000000000000000000000000000000000000000000000000000000000000000000000000000000000000000000000000000000000000000000000000000000000000000000000000000000000000000000000000000000000000000000000000000000000000000000000000000000000000000000000000000000000000000000000000000000000000000000000000000000000000000000000000000000000000000000000000000000000000000000000000000000000000000000000000000000000000000000000000000000000000000000000000000000000000000000000000000000000000000000000000000000083020000018405f5e10083014fa18203e880a07379f33af4ae2db7e293f808a165135d0b1a99572cc96fb9f7d17ef64a751969888e08d7aabeee8773f90108f90105460183030d4094c305c901078781c232a2a521c2af7980f8385ee980b8a430c8d1da000000000000000000000000000000000000000000000000000000000000002000000000000000000000000000000000000000000000000000000000000000600000000000000000000000000000000000000000000000000000000000000001000000000000000000000000000000000000000000000000000000000000000230644e72e131a029b85045b68181585d2833e84879b9709143e1f593f00000001ba021a28cc82b40931239f8653ffa5300e1a506c0ef7fb79a663772cafe6558ab44a075af23441f7f176a2770af41142c77b671391209b15d59144e7a1332179b5e14c0&#34;, &#34;transactions&#34; : [ { &#34;data&#34; : &#34;0x30c8d1da000000000000000000000000000000000000000000000000000000000000002000000000000000000000000000000000000000000000000000000000000000600000000000000000000000000000000000000000000000000000000000000001000000000000000000000000000000000000000000000000000000000000000230644e72e131a029b85045b68181585d2833e84879b9709143e1f593f0000000&#34;, &#34;gasLimit&#34; : &#34;0x030d40&#34;, &#34;gasPrice&#34; : &#34;0x01&#34;, &#34;nonce&#34; : &#34;0x46&#34;, &#34;r&#34; : &#34;0x21a28cc82b40931239f8653ffa5300e1a506c0ef7fb79a663772cafe6558ab44&#34;, &#34;s&#34; : &#34;0x75af23441f7f176a2770af41142c77b671391209b15d59144e7a1332179b5e14&#34;, &#34;to&#34; : &#34;0xc305c901078781c232a2a521c2af7980f8385ee9&#34;, &#34;v&#34; : &#34;0x1b&#34;, &#34;value&#34; : &#34;0x00&#34; } ], &#34;uncleHeaders&#34; : [ ] } ] 区块头的结构 区块头包含15个字段，介绍如下：...</p>
  </section>
  <footer class="entry-footer"><span title='2018-10-06 00:00:00 +0000 UTC'>October 6, 2018</span>&nbsp;·&nbsp;2 min&nbsp;·&nbsp;Theme PaperMod</footer>
  <a class="entry-link" aria-label="post link to 以太坊" href="https://lambertxiao.github.io/posts/_posts/2018-10-06-ethereum-1/"></a>
</article>
    </main>
    
<footer class="footer">
    <span>&copy; 2024 <a href="https://lambertxiao.github.io">Lambert&#39;s blog</a></span>
    <span>
        Powered by
        <a href="https://gohugo.io/" rel="noopener noreferrer" target="_blank">Hugo</a> &
        <a href="https://git.io/hugopapermod" rel="noopener" target="_blank">PaperMod</a>
    </span>
</footer>
<a href="#top" aria-label="go to top" title="Go to Top (Alt + G)" class="top-link" id="top-link" accesskey="g">
    <svg xmlns="http://www.w3.org/2000/svg" viewBox="0 0 12 6" fill="currentColor">
        <path d="M12 6H0l6-6z" />
    </svg>
</a>

<script>
    let menu = document.getElementById('menu')
    if (menu) {
        menu.scrollLeft = localStorage.getItem("menu-scroll-position");
        menu.onscroll = function () {
            localStorage.setItem("menu-scroll-position", menu.scrollLeft);
        }
    }

    document.querySelectorAll('a[href^="#"]').forEach(anchor => {
        anchor.addEventListener("click", function (e) {
            e.preventDefault();
            var id = this.getAttribute("href").substr(1);
            if (!window.matchMedia('(prefers-reduced-motion: reduce)').matches) {
                document.querySelector(`[id='${decodeURIComponent(id)}']`).scrollIntoView({
                    behavior: "smooth"
                });
            } else {
                document.querySelector(`[id='${decodeURIComponent(id)}']`).scrollIntoView();
            }
            if (id === "top") {
                history.replaceState(null, null, " ");
            } else {
                history.pushState(null, null, `#${id}`);
            }
        });
    });

</script>
<script>
    var mybutton = document.getElementById("top-link");
    window.onscroll = function () {
        if (document.body.scrollTop > 800 || document.documentElement.scrollTop > 800) {
            mybutton.style.visibility = "visible";
            mybutton.style.opacity = "1";
        } else {
            mybutton.style.visibility = "hidden";
            mybutton.style.opacity = "0";
        }
    };

</script>
<script>
    document.getElementById("theme-toggle").addEventListener("click", () => {
        if (document.body.className.includes("dark")) {
            document.body.classList.remove('dark');
            localStorage.setItem("pref-theme", 'light');
        } else {
            document.body.classList.add('dark');
            localStorage.setItem("pref-theme", 'dark');
        }
    })

</script>
</body>

</html>
